:100000000C942A000C9447000C9447000C94470071
:100010000C9447000C9447000C9447000C94470044
:100020000C9447000C9447000C9447000C94470034
:100030000C9447000C9447000C9447000C94470024
:100040000C9447000C9447000C9447000C94470014
:100050000C94470011241FBECFE5D8E0DEBFCDBF12
:1000600011E0A0E6B0E0E4EBF1E402C005900D92EF
:10007000AE37B107D9F711E0AEE7B1E001C01D928C
:10008000A238B107E1F70E94691E0C94D8200C94A5
:100090000000EF92FF920F93DF93CF93CDB7DEB7BF
:1000A00060970FB6F894DEBF0FBECDBFA82F002318
:1000B00009F461C07E010894E11CF11C88E0F7019D
:1000C00011928A95E9F729833A834B835C836D8388
:1000D0007E83AF83988780E2801BE82FFF27E7FDB0
:1000E000F09549815A816B817C81181684F01986BC
:1000F0001A861B861C86882799278E1B9F0B04C097
:10010000440F551F661F771F8A95D2F728C0202FEE
:10011000332727FD3095DB01CA01022E04C0880F6A
:10012000991FAA1FBB1F0A94D2F789879A87AB87AA
:10013000BC8704C07695679557954795EA95D2F7A1
:100140008D819E81AF81B88504C0880F991FAA1F39
:10015000BB1F2A95D2F7482B592B6A2B7B2B4D8737
:100160005E876F87788B29853A854B855C856D85A1
:100170007E85AF8598898A2F60960FB6F894DEBF8A
:100180000FBECDBFCF91DF910F91FF90EF900895FB
:10019000A0E0B0E0EEECF0E00C949C1F7B018C0141
:1001A00020E030E040E85FE30E942B1088234CF40D
:1001B000AA24BB24CC24DD24EE24FF2400E010E09C
:1001C00086C0C801B70120E030E040E85FE40E944B
:1001D0002B10882354F4C801B7010E9423115B013E
:1001E0006C01EE24FF24870172C0C801B70120E032
:1001F00030E040E85FE50E942B1087FD0FC0AA2485
:10020000AA94BB24BA94CC24CA94DD24DA94EE24B4
:10021000EA94FF24FA940FEF1FEF59C0C801B70109
:1002200020E030E040E85FE20E94550E7B018C0147
:1002300022243324210190E1A92EB12CC12CD12CF0
:10024000C0E0D0E061E070E080E090E00A2C04C003
:10025000660F771F881F991F0A94D2F70E945B10C0
:100260003B014C01C801B701A40193010E94FB0F9F
:10027000882364F02A283B284C285D28C801B70150
:10028000A40193010E944F0F7B018C01D694C79467
:10029000B794A7942196C530D105A1F6C801B7013E
:1002A00020E030E040E85FE40E94550E0E942311F8
:1002B0005B016C019B01A60160E070E080E090E0D2
:1002C000022D0E94490059016A017B018C019501B0
:1002D000A601B701C801CDB7DEB7E2E10C94B81FA3
:1002E000AEE5B0E0E6E7F1E00C949C1FA8E04E011B
:1002F0000894811C911CF4016A2E11926A94E9F70A
:1003000029833A834B835C836D837E838F839887B5
:10031000CE010996FC011192AA95E9F7A986BA8641
:10032000CB86DC86ED86FE860F87188B29843A847F
:100330004B845C84ED84FE840F85188969807A8003
:100340008B809C806DA67EA68FA698AA6D807E80ED
:100350008F809884E114F1040105110509F0B3C3FD
:10036000621473048404950408F03DC100E0201673
:1003700000E0300601E0400600E0500688F41FEF80
:10038000211631044104510439F030F048E0E42EE4
:10039000F12C012D112D18C0EE24FF24870114C06B
:1003A00020E0221620E0320620E0420621E052063C
:1003B00030F038E1E32EF12C012D112D05C020E1A4
:1003C000E22EF12C012D112DD201C1010E2C04C001
:1003D000B695A795979587950A94D2F788599F4F18
:1003E000DC012C9180E290E0A0E0B0E08E199F0942
:1003F000A00BB10B7C018D01E21AF1080109110972
:10040000E114F10401051105A1F10E2C04C0220C28
:10041000331C441C551C0A94D2F7A40193010E2CE2
:1004200004C0220F331F441F551F0A94D2F780E2E5
:1004300090E08E199F096DA47EA48FA498A804C093
:1004400096948794779467948A95D2F7622A732A50
:10045000842A952AADA4BEA4CFA4D8A804C0AA0C0F
:10046000BB1CCC1CDD1CEA94D2F7ADA6BEA6CFA661
:10047000D8AA6201EE24FF24CDAADEAAEFAAF8AE24
:10048000920181012070307009AF1AAF2BAF3CAFE1
:10049000C401B301A70196010E947A1F7B018C0160
:1004A000C401B3012DA93EA94FA958AD0E947A1FDE
:1004B000C901DA013C014D01C401B30129AD3AADD6
:1004C0004BAD5CAD0E94401F9B01AC018701FF2436
:1004D000EE24ADA4BEA4CFA4D8A8C601AA27BB27EA
:1004E00057016801A82AB92ACA2ADB2AA216B3062C
:1004F000C406D506E0F408946108710881089108E3
:10050000A20CB31CC41CD51CA214B304C404D5048F
:1005100070F0A216B306C406D50648F40894610824
:10052000710881089108A20CB31CC41CD51CA21A26
:10053000B30AC40AD50AC601B5012DA93EA94FA91F
:1005400058AD0E947A1F7B018C01C601B5012DA90F
:100550003EA94FA958AD0E947A1FC901DA015C017A
:100560006D01C601B50129AD3AAD4BAD5CAD0E9440
:10057000401F9B01AC018701FF24EE248DA59EA5A1
:10058000AFA5B8A9A070B070E82AF92A0A2B1B2BD6
:10059000E216F30604071507C0F40894A108B10891
:1005A000C108D108E20CF31C041D151DE214F3046C
:1005B0000405150550F0E216F3060407150728F4A4
:1005C0000894A108B108C108D108D3019927882748
:1005D00086017501E82AF92A0A2B1B2BE9AAFAAA37
:1005E0000BAB1CABCFC4211431044104510471F492
:1005F00061E070E080E090E020E030E040E050E03A
:100600000E947A1FC901DA011C012D0100E02016A9
:1006100000E0300601E0400600E0500688F41FEFDD
:10062000211631044104510431F028F048E050E033
:1006300060E070E017C040E050E060E070E012C0A1
:1006400020E0221620E0320620E0420621E0520699
:1006500028F048E150E060E070E004C040E150E084
:1006600060E070E0D201C101042E04C0B695A795E8
:10067000979587950A94D2F788599F4FDC012C9162
:10068000E0E2EE2EF12C012D112DD801C701841BC3
:10069000950BA60BB70B821B9109A109B109009715
:1006A000A105B10561F464015301A218B308C4089F
:1006B000D50831E0632E712C812C912C1EC16F96D0
:1006C0008FAF6F97082E04C0220C331C441C551C9E
:1006D0000A94D2F7EE2DE81B640153010E2E04C0DC
:1006E000D694C794B794A7940A94D2F7A40193011F
:1006F0006F960FAC6F9704C0220F331F441F551F16
:100700000A94D2F76DA47EA48FA498A80E2E04C0DC
:1007100096948794779467940A94D2F7840173012E
:10072000E22AF32A042B152BE9A6FAA60BA71CA78D
:100730003201882499249201810120703070219621
:100740000CAF1DAF2EAF3FAF2197C601B501A4017D
:1007500093010E947A1F7B018C01C601B501A4019F
:1007600093010E947A1FC901DA0125968CAF9DAFD3
:10077000AEAFBFAF2597BC01CD0121962CAD3DADED
:100780004EAD5FAD21970E94401F9B01AC018701D8
:10079000FF24EE24A9A4BAA4CBA4DCA4C601AA27F2
:1007A000BB275C016D01AE28BF28C02AD12AA21642
:1007B000B306C406D50660F525966CAD7DAD8EAD4D
:1007C0009FAD2597615070408040904025966CAF5A
:1007D0007DAF8EAF9FAF2597A20CB31CC41CD51C58
:1007E000A214B304C404D50498F0A216B306C40638
:1007F000D50670F4615070408040904025966CAFF3
:100800007DAF8EAF9FAF2597A20CB31CC41CD51C27
:10081000A21AB30AC40AD50AC601B501A4019301FC
:100820000E947A1F7B018C01C601B501A4019301CE
:100830000E947A1FC901DA013C014D01C401B301D4
:1008400021962CAD3DAD4EAD5FAD21970E94401F6E
:100850009B01AC018701FF24EE2489A59AA5ABA5D5
:10086000BCA5A070B07057016801A82AB92ACA2A8D
:10087000DB2AA216B306C406D506E0F40894610884
:10088000710881089108A20CB31CC41CD51CA214C9
:10089000B304C404D50470F0A216B306C406D5068A
:1008A00048F408946108710881089108A20CB31CEF
:1008B000C41CD51C8DA59EA5AFA5B8A96F960FAC7D
:1008C0006F9704C0880F991FAA1FBB1F0A94D2F705
:1008D0008DA79EA7AFA7B8ABA21AB30AC40AD50AC0
:1008E0002596ECACFDAC0EAD1FAD2597D701992731
:1008F0008827682A792A8A2A9B2A82012227332775
:1009000029960CAF1DAF2EAF3FAF2997A2019101E1
:10091000407050702D962CAF3DAF4EAF5FAF2D970E
:10092000C601B50129962CAD3DAD4EAD5FAD299701
:100930000E947A1F7B018C01C601B50129962CAD5E
:100940003DAD4EAD5FAD29970E947A1FC901DA0116
:1009500061968CAF9DAFAEAFBFAF6197BC01CD01CB
:100960002D962CAD3DAD4EAD5FAD2D970E94401F35
:100970009B01AC018701FF24EE24ADA4BEA4CFA44B
:10098000D8A8C601AA27BB2757016801A82AB92AF7
:10099000CA2ADB2AA216B306C406D50660F56196FC
:1009A0006CAD7DAD8EAD9FAD619761507040804064
:1009B000904061966CAF7DAF8EAF9FAF6197A20CF8
:1009C000B31CC41CD51CA214B304C404D50498F0F1
:1009D000A216B306C406D50670F46150704080407C
:1009E000904061966CAF7DAF8EAF9FAF6197A20CC8
:1009F000B31CC41CD51CA21AB30AC40AD50AC6016A
:100A0000B50129962CAD3DAD4EAD5FAD29970E9445
:100A10007A1F7B018C01C601B50129962CAD3DAD35
:100A20004EAD5FAD29970E947A1FC901DA015C01C2
:100A30006D01C601B5012D962CAD3DAD4EAD5FAD3E
:100A40002D970E94401F9B01AC018701FF24EE24DB
:100A50008DA59EA5AFA5B8A9A070B070E82AF92A07
:100A60000A2B1B2BE216F30604071507C0F40894A3
:100A7000A108B108C108D108E20CF31C041D151D22
:100A8000E214F3040405150550F0E216F30604071A
:100A9000150728F40894A108B108C108D108619687
:100AA000ECACFDAC0EAD1FAD6197D701992788273F
:100AB00096018501082B192B2A2B3B2B09AB1AAB6E
:100AC0002BAB3CAB62C26E147F048006910608F427
:100AD00051C220E0E21620E0F20621E0020720E009
:100AE000120788F43FEFE316F1040105110531F018
:100AF00028F048E050E060E070E017C040E050E0CF
:100B000060E070E012C040E0E41640E0F40640E02F
:100B1000040741E0140728F048E150E060E070E08D
:100B200004C040E150E060E070E0D801C701042E4D
:100B300004C0B695A795979587950A94D2F78859DA
:100B40009F4FDC012C9130E2A32EB12CC12CD12C73
:100B5000D601C501841B950BA60BB70B821B91090F
:100B6000A109B1090097A105B10589F4E614F704BC
:100B70000805190508F4F2C16DA47EA48FA498A8F5
:100B8000621473048404950408F0E8C1F3C16E96FE
:100B90008FAF6E97082E04C0EE0CFF1C001F111FB4
:100BA0000A94D2F76A2D681BD201C101062E04C037
:100BB000B695A795979587950A94D2F75C016D0134
:100BC000AE28BF28C02AD12AADA2BEA2CFA2D8A6E5
:100BD000720161016E960FAC6E9704C0CC0CDD1CE7
:100BE000EE1CFF1C0A94D2F7C9A2DAA2EBA2FCA267
:100BF00064015301062E04C0D694C794B794A794F9
:100C00000A94D2F7D401C3016E960FAC6E9704C05C
:100C1000880F991FAA1FBB1F0A94D2F7EDA4FEA448
:100C20000FA518A904C016950795F794E7946A953F
:100C3000D2F737014801682A792A8A2A9B2A6D8EC1
:100C40007E8E8F8E98A2EDA0FEA00FA118A5380170
:100C500088249924980187012070307065960CAF24
:100C60001DAF2EAF3FAF6597C601B501A40193013B
:100C70000E947A1F7B018C01C601B501A40193017A
:100C80000E947A1FC901DA011C012D01C201B101C4
:100C900065962CAD3DAD4EAD5FAD65970E94401F92
:100CA0009B01AC018701FF24EE24AD8CBE8CCF8C60
:100CB000D8A0C601AA27BB2757016801A82AB92ACC
:100CC000CA2ADB2AA216B306C406D50600F5089484
:100CD0002108310841085108EDA0FEA00FA118A578
:100CE000AE0CBF1CC01ED11EAE14BF04C006D10680
:100CF00070F0A216B306C406D50648F4089421087D
:100D0000310841085108AE0CBF1CC01ED11EA21AEA
:100D1000B30AC40AD50AC601B501A40193010E9411
:100D20007A1F7B018C01C601B501A40193010E94C9
:100D30007A1FC901DA013C014D01C401B301659676
:100D40002CAD3DAD4EAD5FAD65970E94401F9B0140
:100D5000AC018701FF24EE248D8D9E8DAF8DB8A14F
:100D6000A070B07057016801A82AB92ACA2ADB2AE4
:100D7000A216B306C406D50600F5089461087108EA
:100D8000810891086DA17EA18FA198A5A60EB71E1E
:100D9000C81ED91EA616B706C806D90670F0A21638
:100DA000B306C406D50648F40894610871088108A2
:100DB0009108A60EB71EC81ED91ED601C501821BFA
:100DC000930BA40BB50B898F9A8FAB8FBC8FD1017E
:100DD0009927882764015301A82AB92ACA2ADB2A3D
:100DE000A9AABAAACBAADCAA860175012FEF3FEF08
:100DF00040E050E0E222F32204231523A6016627F7
:100E000077276D964CAF5DAF6EAF7FAF6D97A9A0A2
:100E1000BAA0CBA0DCA06FEF7FEF80E090E0A6222D
:100E2000B722C822D92289A19AA1ABA1BCA11D01D8
:100E300044245524C801B701A60195010E94401F12
:100E400069966CAF7DAF8EAF9FAF6997C801B70150
:100E5000A20191010E94401F3B014C016D966CADB7
:100E60007DAD8EAD9FAD6D97A60195010E94401F8F
:100E70007B018C016D966CAD7DAD8EAD9FAD6D9798
:100E8000A20191010E94401F5B016C01A801970122
:100E9000260D371D481D591D69966CAC7DAC8EAC76
:100EA0009FAC6997C401AA27BB27280F391F4A1F87
:100EB0005B1F2E153F054007510748F4E12CF12C2C
:100EC00061E0062F112DAE0CBF1CC01ED11ECA0141
:100ED000AA27BB27BC01CD016A0D7B1D8C1D9D1D62
:100EE000698C7A8C8B8C9C8C6616770688069906A2
:100EF00040F1661577058805990509F043C0D901C9
:100F00009927882769962CAD3DAD4EAD5FAD6997A9
:100F100040705070820F931FA41FB51F2DA53EA5D2
:100F20004FA558A96E960FAC6E9704C0220F331FC1
:100F3000441F551F0A94D2F7281739074A075B0741
:100F400008F509A91AA92BA93CA901501040204075
:100F5000304009AB1AAB2BAB3CAB14C066247724F2
:100F6000430121E030E040E050E029AB3AAB4BAB2D
:100F70005CAB0BC066247724430119AA1AAA1BAAEA
:100F80001CAA03C0662477244301FE01719688E001
:100F9000DF011D928A95E9F7A9A8BAA8CBA8DCA819
:100FA000A98ABA8ACB8ADC8A6D8A7E8A8F8A988ED1
:100FB00029A93A894B895C89662D7E898F89988D0C
:100FC000C25ADF4FE2E10C94B81FABE5B0E0EBEEA4
:100FD000F7E00C949C1FA8E04E010894811C911C22
:100FE000F4016A2E11926A94E9F729833A834B83BC
:100FF0005C836D837E838F839887CE010996FC0185
:101000001192AA95E9F7A986BA86CB86DC86ED8689
:10101000FE860F87188B29843A844B845C84AD84C8
:10102000BE84CF84D88829813A814B815C816996BE
:101030002FAF69976A963FAF6A976B964FAF6B97E2
:101040006C965FAF6C976C966CAC7DAC8EAC9FACC5
:101050006C9769AA7AAA8BAA9CAA6D817E818F81DE
:1010600098853B014C016DAA7EAA8FAA98AEA11467
:10107000B104C104D10409F004C3621473048404EC
:10108000950408F000C100E0201600E0300601E001
:10109000400600E0500688F41FEF21163104410499
:1010A000510439F030F088E0E82EF12C012D112D9B
:1010B00018C0EE24FF24870114C040E0241640E04D
:1010C000340640E0440641E0540630F0B8E1EB2E2F
:1010D000F12C012D112D05C0A0E1EA2EF12C012DDE
:1010E000112DD201C1010E2C04C0B695A79597957C
:1010F00087950A94D2F788599F4FDC012C9180E2A2
:1011000090E0A0E0B0E08E199F09A00BB10B5C014C
:101110006D01A21AB108C108D108A9AEBAAECBAE12
:10112000DCAEA114B104C104D10409F43FC069AD1F
:10113000062E04C0220C331C441C551C0A94D2F702
:10114000A4019301062E04C0220F331F441F551F14
:101150000A94D2F780E290E08A199B096C96CCAC95
:10116000DDACEEACFFAC6C9704C0F694E794D7947A
:10117000C7948A95D2F787017601E22AF32A042BD5
:10118000152BEDAAFEAA0FAB18AF6C968CAD9DADDA
:10119000AEADBFAD6C9704C0880F991FAA1FBB1FCF
:1011A0006A95D2F789AB9AABABABBCAB3201882462
:1011B0009924B201A1016070707021964CAF5DAFAF
:1011C0006EAF7FAF21976DA97EA98FA998ADA401BD
:1011D00093010E947A1F7B018C016DA97EA98FA9C2
:1011E00098ADA40193010E947A1FCA01B90121960A
:1011F0002CAD3DAD4EAD5FAD21970E94401F9B01D0
:10120000AC018701FF24EE24A9A8BAA8CBA8DCA8CA
:10121000C601AA27BB2757016801A82AB92ACA2AEA
:10122000DB2AA216B306C406D50690F4A20CB31CA2
:10123000C41CD51CA214B304C404D50448F0A216DF
:10124000B306C406D50620F4A20CB31CC41CD51CDE
:10125000A21AB30AC40AD50AC601B501A4019301B2
:101260000E947A1F7B018C01C601B501A401930184
:101270000E947A1FCA01B90121962CAD3DAD4EAD39
:101280005FAD2197BAC1211431044104510471F4B6
:1012900061E070E080E090E020E030E040E050E08D
:1012A0000E947A1FC901DA011C012D0100E02016FD
:1012B00000E0300601E0400600E0500688F41FEF31
:1012C000211631044104510439F030F068E0E62E73
:1012D000F12C012D112D18C0EE24FF24870114C01C
:1012E00040E0241640E0340640E0440641E0540665
:1012F00030F058E1E52EF12C012D112D05C040E113
:10130000E42EF12C012D112DD201C1010E2C04C0AF
:10131000B695A795979587950A94D2F788599F4FC8
:10132000DC012C9130E2A32EB12CC12CD12CD601A2
:10133000C5018E199F09A00BB10B7C018D01E21A2A
:10134000F10801091109E9AEFAAE0BAF1CAFE114C7
:10135000F1040105110539F464015301A218B30821
:10136000C408D508E2C0F9AC6896FFAE68970F2CA8
:1013700004C0220C331C441C551C0A94D2F78A2D3D
:101380008F1964015301082E04C0D694C794B794F2
:10139000A7940A94D2F7A401930104C0220F331F2B
:1013A000441F551FFA94D2F76C966CAC7DAC8EAC92
:1013B0009FAC6C9704C096948794779467948A95B1
:1013C000D2F784017301E22AF32A042B152BEDA630
:1013D000FEA60FA718AB320188249924B201A101FF
:1013E0006070707025964CAF5DAF6EAF7FAF259784
:1013F000C601B501A40193010E947A1F7B018C01F3
:10140000C601B501A40193010E947A1FCA01B90166
:1014100025962CAD3DAD4EAD5FAD25970E94401F8A
:101420009B01AC018701FF24EE24ADA4BEA4CFA490
:10143000D8A8C601AA27BB275C016D01AE28BF282A
:10144000C02AD12AA216B306C406D50690F4A20C6F
:10145000B31CC41CD51CA214B304C404D50448F0A6
:10146000A216B306C406D50620F4A20CB31CC41CF5
:10147000D51CA21AB30AC40AD50AC601B501A40133
:1014800093010E947A1F7B018C01C601B501A40162
:1014900093010E947A1FCA01B90125962CAD3DAD7A
:1014A0004EAD5FAD25970E94401F9B01AC018701A7
:1014B000FF24EE248DA59EA5AFA5B8A9A070B0709D
:1014C00057016801A82AB92ACA2ADB2AA216B3063C
:1014D000C406D50690F4A20CB31CC41CD51CA214DF
:1014E000B304C404D50448F0A216B306C406D50656
:1014F00020F4A20CB31CC41CD51C6C96ECACFDAC47
:101500000EAD1FAD6C9768960FAC689704C0EE0CDB
:10151000FF1C001F111F0A94D2F7E9AAFAAA0BAB0D
:101520001CABA21AB30AC40AD50A32018824992432
:10153000B201A1016070707029964CAF5DAF6EAFC3
:101540007FAF2997C601B501A40193010E947A1FBC
:101550007B018C01C601B501A40193010E947A1F91
:10156000CA01B90129962CAD3DAD4EAD5FAD2997AD
:101570000E94401F9B01AC018701FF24EE24A9A813
:10158000BAA8CBA8DCA8C601AA27BB2757016801C7
:10159000A82AB92ACA2ADB2AA216B306C406D50687
:1015A00090F4A20CB31CC41CD51CA214B304C40434
:1015B000D50448F0A216B306C406D50620F4A20C42
:1015C000B31CC41CD51CA21AB30AC40AD50AC6018E
:1015D000B501A40193010E947A1F7B018C01C60111
:1015E000B501A40193010E947A1FCA01B90129968D
:1015F0002CAD3DAD4EAD5FAD29970E94401F9B01C4
:10160000AC018701FF24EE2489A99AA9ABA9BCA942
:10161000A070B070E82AF92A0A2B1B2BE216F306F9
:101620000407150790F4E20CF31C041D151DE214C9
:10163000F3040405150548F0E216F3060407150740
:1016400020F4E20CF31C041D151DE21AF30A040B2E
:10165000150BD801C70109AC04C0B695A79597959D
:1016600087950A94D2F7898B9A8BAB8BBC8B1D8A9A
:101670001E8A1F8A188E282F3A894B895C896D89AA
:101680000CC36A147B048C049D0408F409C300E0B5
:10169000A01600E0B00601E0C00600E0D00688F425
:1016A0001FEFA116B104C104D10439F030F028E0D5
:1016B000E22EF12C012D112D18C0EE24FF248701FC
:1016C00014C040E0A41640E0B40640E0C40641E087
:1016D000D40630F098E1E92EF12C012D112D05C032
:1016E00080E1E82EF12C012D112DD601C5010E2C23
:1016F00004C0B695A795979587950A94D2F788590F
:101700009F4FDC012C9180E290E0A0E0B0E08E19C8
:101710009F09A00BB10B821B9109A109B109009788
:10172000A105B10509F04FC0A614B704C804D90437
:1017300058F06C96ECACFDAC0EAD1FAD6C97E2149E
:10174000F3040405150568F16C96ECACFDAC0EAD28
:101750001FAD6C97E218F30804091509A401930161
:101760002A193B094C095D09AA24BB2465016C9622
:101770006CAD7DAD8EAD9FAD6C976E157F0580070E
:10178000910728F4B1E0AB2EB12CC12CD12CDA0199
:10179000C9018A199B09AC09BD098DAB9EABAFABE2
:1017A000B8AFE98AFA8A0B8B1C8B6DA87EA88FA82C
:1017B00098AC6D8A7E8A8F8A988E2E2D3A894B89B5
:1017C0005C896DA96AC267968FAF6797A60195017C
:1017D000082E04C0220F331F441F551F0A94D2F74E
:1017E000A0E2AA2EA81A6696AFAE6697D201C101F2
:1017F00004C0B695A79597958795AA94D2F76C01E2
:101800007D01C22AD32AE42AF52AC9A6DAA6EBA6C4
:10181000FCA68201710167960FAC679704C0EE0CBD
:10182000FF1C001F111F0A94D2F7EDA2FEA20FA306
:1018300018A76401530166960FAC669704C0D6944E
:10184000C794B794A7940A94D2F7A401930167961A
:101850000FAC679704C0220F331F441F551F0A9413
:10186000D2F76C968CAD9DADAEADBFAD6C97669664
:101870000FAC669704C0B695A795979587950A947F
:10188000D2F73C014D01622A732A842A952A69A263
:101890007AA28BA29CA26C96ECACFDAC0EAD1FADF7
:1018A0006C9767960FAC679704C0EE0CFF1C001F87
:1018B000111F0A94D2F7ED8EFE8E0F8F18A349A543
:1018C0005AA56BA57CA53B01882499246070707093
:1018D0002D964CAF5DAF6EAF7FAF2D97C601B501B2
:1018E000A40193010E947A1F7B018C01C601B501FE
:1018F000A40193010E947A1FC901DA011C012D0184
:10190000C201B1012D962CAD3DAD4EAD5FAD2D9711
:101910000E94401F9B01AC018701FF24EE24A9A077
:10192000BAA0CBA0DCA0C601AA27BB27570168013B
:10193000A82AB92ACA2ADB2AA216B306C406D506E3
:1019400000F508942108310841085108E9A4FAA4D7
:101950000BA51CA5AE0CBF1CC01ED11EAE14BF042F
:10196000C006D10670F0A216B306C406D50648F428
:1019700008942108310841085108AE0CBF1CC01E54
:10198000D11EA21AB30AC40AD50AC601B501A40120
:1019900093010E947A1F7B018C01C601B501A4014D
:1019A00093010E947A1FC901DA013C014D01C40173
:1019B000B3012D962CAD3DAD4EAD5FAD2D970E9480
:1019C000401F9B01AC018701FF24EE2489A19AA14D
:1019D000ABA1BCA1A070B07057016801A82AB92AB8
:1019E000CA2ADB2AA216B306C406D50600F5089457
:1019F000610871088108910869A57AA58BA59CA545
:101A0000A60EB71EC81ED91EA616B706C806D9064A
:101A100070F0A216B306C406D50648F4089461080F
:101A2000710881089108A60EB71EC81ED91ED601DE
:101A3000C501821B930BA40BB50B898F9A8FAB8FBB
:101A4000BC8FD1019927882784017301E82AF92ADC
:101A50000A2B1B2B4FEFA42E4FEFB42EC12CD12CF1
:101A6000AE20BF20C022D1227801002711276DA00F
:101A70007EA08FA098A44FEF5FEF60E070E064223B
:101A80007522862297228DA19EA1AFA1B8A5BD0186
:101A90008827992765966CAF7DAF8EAF9FAF65970E
:101AA000C601B501A40193010E94401F61966CAF6D
:101AB0007DAF8EAF9FAF6197C601B50165962CAD26
:101AC0003DAD4EAD5FAD65970E94401F1B012C01DF
:101AD000C801B701A40193010E94401F5B016C0182
:101AE000C801B70165962CAD3DAD4EAD5FAD6597B4
:101AF0000E94401F7B018C01A6019501220D331D20
:101B0000441D551D61966CAC7DAC8EAC9FAC61974D
:101B1000C401AA27BB27280F391F4A1F5B1F2A159C
:101B20003B054C055D0548F4812C912CE1E0AE2E7F
:101B3000B12CE80CF91C0A1D1B1DCA01AA27BB27E2
:101B400057016801A80EB91ECA1EDB1EA901332762
:101B5000222761968CAD9DADAEADBFAD6197A070F3
:101B6000B070280F391F4A1F5B1FE98CFA8C0B8D50
:101B70001C8DEA14FB040C051D0570F0AE14BF04A7
:101B8000C006D10669F56D8D7E8D8F8D98A1621787
:101B900073078407950720F5DA01C9016DA07EA0BF
:101BA0008FA098A486199709A809B909E9A4FAA4ED
:101BB0000BA51CA5AE18BF08C00AD10AEE24FF244D
:101BC0008701281739074A075B0728F421E0E22E2E
:101BD000F12C012D112DAE18BF08C00AD10A02C088
:101BE000DA01C9016D8C7E8C8F8C98A0681A790AF5
:101BF0008A0A9B0A498D5A8D6B8D7C8D4A195B0927
:101C00006C097D095A016B012224332421016D8D59
:101C10007E8D8F8D98A1661577058805990528F426
:101C200081E0282E312C412C512C86017501E218BF
:101C3000F30804091509A801970166960FAC669789
:101C400004C0220F331F441F551F0A94D2F7D4013A
:101C5000C30167960FAC679704C0B695A795979593
:101C600087950A94D2F7282B392B4A2B5B2B298B8B
:101C70003A8B4B8B5C8B67960FAC679704C01695BD
:101C80000795F794E7940A94D2F7ED8AFE8A0F8BB2
:101C9000188F3A894B895C896E2D7E898F89988D42
:101CA000C55ADF4FE2E10C94B81FA0E2B0E0EBE5CB
:101CB000FEE00C949C1F69837A838B839C832D8325
:101CC0003E834F835887CE010196BE01675F7F4FE9
:101CD0000E942412CE010596BE016F5E7F4F0E94C6
:101CE00024129985923088F089898230C8F0943026
:101CF00019F4823051F404C0843029F4923081F414
:101D000080E690E0C6C0923049F420E09A858A8946
:101D1000981321E02A87CE010996BBC0823049F48E
:101D200020E09A858A89981321E02A8BCE0141967A
:101D3000B0C02D843E844F8458886D887E888F88FB
:101D4000988CEE24FF248701AA24BB24650140E07F
:101D500050E060E070E0E0E0F0E0C1018170907080
:101D6000892BE9F0E60CF71C081D191D9A01AB013F
:101D70002A0D3B1D4C1D5D1D80E090E0A0E0B0E011
:101D8000E614F7040805190520F481E090E0A0E0CE
:101D9000B0E0BA01A901480F591F6A1F7B1FAA0CA6
:101DA000BB1CCC1CDD1C97FE08C081E090E0A0E0CD
:101DB000B0E0A82AB92ACA2ADB2A3196E032F10516
:101DC00049F0660C771C881C991C569447943794EC
:101DD0002794C3CFFA85EA892B893C898B859C851A
:101DE000280F391F2E5F3F4F17C0CA0181709070B6
:101DF000892B61F016950795F794E79480E090E0C1
:101E0000A0E0B0E8E82AF92A0A2B1B2B7695679503
:101E1000579547952F5F3F4F77FDE7CF0CC0440F95
:101E2000551F661F771F17FD4160EE0CFF1C001F3A
:101E3000111F21503040403090E0590790E0690771
:101E400090E4790760F32B8F3C8FDB01CA018F7719
:101E50009070A070B07080349105A105B10561F457
:101E600047FD0AC0E114F1040105110529F0405CA9
:101E70005F4F6F4F7F4F40781A8EFE1711F081E051
:101E80008A8F4D8F5E8F6F8F78A383E0898FCE010D
:101E900049960E944F11A096E2E10C94B81FA8E168
:101EA000B0E0E5E5FFE00C94A41F69837A838B839F
:101EB0009C832D833E834F835887B9E0EB2EF12C12
:101EC000EC0EFD1ECE010196B7010E9424128E0178
:101ED0000F5E1F4FCE010596B8010E94241229857E
:101EE000223008F47EC03989323010F4B8017CC049
:101EF0008A859A8989278A87243011F0223031F423
:101F0000231709F06EC060E670E06EC0343039F41B
:101F10001D861E861F86188A1C861B8604C03230CA
:101F200021F484E08987B7015FC02B853C858B89CC
:101F30009C89281B390B3C872B87ED84FE840F85F9
:101F40001889AD88BE88CF88D88CEA14FB040C05AC
:101F50001D0540F4EE0CFF1C001F111F21503040E6
:101F60003C872B8720E030E040E050E080E090E0CC
:101F7000A0E0B0E460E070E0EA14FB040C051D058D
:101F800040F0282B392B4A2B5B2BEA18FB080C0955
:101F90001D09B695A79597958795EE0CFF1C001F18
:101FA000111F6F5F7F4F6F31710531F7DA01C90182
:101FB0008F779070A070B07080349105A105B10545
:101FC00061F427FD0AC0E114F1040105110529F0AF
:101FD000205C3F4F4F4F5F4F20782D873E874F87C4
:101FE000588BBE01675F7F4FCB010E944F116896EF
:101FF000EAE00C94C01FA8E1B0E0E1E0F0E10C944D
:10200000A81F69837A838B839C832D833E834F83B0
:10201000588789E0E82EF12CEC0EFD1ECE010196CA
:10202000B7010E9424128E010F5E1F4FCE0105964C
:10203000B8010E9424128985823040F0898982305B
:1020400028F0C701B8010E94461401C08FEF6896BE
:10205000E6E00C94C41FA8E1B0E0E1E3F0E10C94E9
:10206000A81F69837A838B839C832D833E834F8350
:10207000588789E0E82EF12CEC0EFD1ECE0101966A
:10208000B7010E9424128E010F5E1F4FCE010596EC
:10209000B8010E9424128985823040F089898230FB
:1020A00028F0C701B8010E94461401C081E068967B
:1020B000E6E00C94C41FA8E0B0E0E1E6F0E10C9487
:1020C000A41F7B018C01611571058105910519F42F
:1020D00082E0898360C083E089838EE1C82ED12CA1
:1020E000DC82CB82ED82FE820F831887C801B701A4
:1020F0000E94D410FC013197F7FF3BC02227332701
:102100002E1B3F0B57016801022E04C0D694C794C2
:10211000B794A7940A94D2F740E050E060E070E0F2
:1021200081E090E0A0E0B0E004C0880F991FAA1FF2
:10213000BB1F2A95D2F70197A109B1098E219F21D2
:10214000A023B1230097A105B10521F041E050E0A3
:1021500060E070E04A295B296C297D294D835E830C
:102160006F8378878EE190E08E1B9F0B9C838B831F
:1021700012C0309781F00E2E04C0EE0CFF1C001F21
:10218000111F0A94D2F7ED82FE820F831887CE1AB0
:10219000DF0ADC82CB821A82CE0101960E944F11A7
:1021A0002896EAE00C94C01FEF92FF920F931F93C2
:1021B0007B018C0180E0E81680E0F80681E00807EA
:1021C00080E0180788F48FEFE816F1040105110587
:1021D00031F028F088E090E0A0E0B0E017C080E0A7
:1021E00090E0A0E0B0E012C080E0E81680E0F806E1
:1021F00080E0080781E0180728F088E190E0A0E07F
:10220000B0E004C080E190E0A0E0B0E020E230E087
:1022100040E050E0281B390B4A0B5B0B04C01695BD
:102220000795F794E7948A95D2F7F701E859FF4F9D
:102230008081281B310941095109C9011F910F9162
:10224000FF90EF900895EF92FF920F931F937B0101
:102250008C0120E030E040E05FE40E94FB0F882327
:102260008CF0C801B70120E030E040E05FE40E945C
:10227000E8130E949F149B01AC0120503040404065
:10228000504806C0C801B7010E949F149B01AC01D1
:10229000B901CA011F910F91FF90EF900895DF924D
:1022A000EF92FF920F931F93FC01E480F58006816B
:1022B0001781D1808081823048F480E090E0A0E1F5
:1022C000B0E0E82AF92A0A2B1B2BA5C0843009F4B8
:1022D0009FC0823021F4EE24FF24870105C0E11461
:1022E000F1040105110519F4E0E0F0E096C0628107
:1022F00073819FEF623879070CF05BC022E83FEFF3
:10230000261B370B2A3131052CF020E030E040E06D
:1023100050E02AC0B801A701022E04C07695679547
:10232000579547950A94D2F781E090E0A0E0B0E09D
:1023300004C0880F991FAA1FBB1F2A95D2F70197C7
:10234000A109B1098E219F21A023B1230097A105E6
:10235000B10521F081E090E0A0E0B0E09A01AB018E
:10236000282B392B4A2B5B2BDA01C9018F77907010
:10237000A070B07080349105A105B10539F427FF34
:1023800009C0205C3F4F4F4F5F4F04C0215C3F4F5F
:102390004F4F5F4FE0E0F0E02030A0E03A07A0E0D0
:1023A0004A07A0E45A0710F0E1E0F0E079018A0161
:1023B00027C06038710564F5FB01E158FF4FD80173
:1023C000C7018F779070A070B07080349105A1051F
:1023D000B10539F4E7FE0DC080E490E0A0E0B0E084
:1023E00004C08FE390E0A0E0B0E0E80EF91E0A1F01
:1023F0001B1F17FF05C016950795F794E7943196B4
:1024000087E016950795F794E7948A95D1F705C06C
:10241000EE24FF248701EFEFF0E06E2F679566272B
:102420006795902F9F77D794DD24D7948E2F86952C
:10243000492F462B582F5D29B701CA011F910F91D3
:10244000FF90EF90DF900895FC01DB014081518106
:102450002281622F6F7770E0221F2227221F938133
:10246000892F880F822B282F30E0991F9927991FD9
:1024700011969C93119721153105A9F54115510528
:102480006105710511F482E037C082E89FEF139671
:102490009C938E9312979A01AB0167E0220F331F32
:1024A000441F551F6A95D1F783E08C930DC0220F0E
:1024B000331F441F551F12968D919C9113970197BE
:1024C00013969C938E931297203080E0380780E01B
:1024D000480780E4580758F314962D933D934D9385
:1024E0005C93179708952F3F310579F441155105F5
:1024F0006105710519F484E08C93089564FF03C0AD
:1025000081E08C9312C01C9210C02F57304013965C
:102510003C932E93129783E08C9387E0440F551FD2
:10252000661F771F8A95D1F7706414964D935D935B
:102530006D937C9317970895A0E0B0E0E2EAF2E192
:102540000C949C1FDC012B01FA019C91923008F441
:1025500039C1EB018881823008F433C1943069F4C9
:10256000843009F02FC111969C9111978981981799
:1025700009F428C1A0E6B0E025C1843009F421C1E6
:102580008230A9F4923009F01DC19A01AD0188E0B2
:10259000EA010990AE01E90109929E018150C1F75B
:1025A000E201898111969C918923818308C192302F
:1025B00009F407C112962D903C901397EB018A8184
:1025C0009B811496AD90BD90CD90DC901797EC80D8
:1025D000FD800E811F819101281B390BB90137FF46
:1025E00004C066277727621B730B603271050CF0FD
:1025F00061C0121613066CF537014801062E04C09F
:1026000096948794779467940A94D2F721E030E007
:1026100040E050E004C0220F331F441F551F6A954D
:10262000D2F721503040404050402E213F214023DE
:102630005123211531054105510521F021E030E0FC
:1026400040E050E079018A01E628F7280829192995
:102650003CC0232BD1F1260E371E35014601062E34
:1026600004C096948794779467940A94D2F721E0F3
:1026700030E040E050E004C0220F331F441F551FDC
:102680006A95D2F721503040404050402A213B21EA
:102690004C215D21211531054105510521F021E035
:1026A00030E040E050E059016A01A628B728C82868
:1026B000D9280BC0821593052CF01C01AA24BB2439
:1026C000650103C0EE24FF24870111969C91D2017D
:1026D00011968C91981709F445C0992339F0A801F7
:1026E00097012A193B094C095D0906C0A60195010D
:1026F0002E193F09400B510B57FD08C01182338240
:10270000228224833583468357831DC081E08183E1
:102710003382228288279927DC01821B930BA40B2A
:10272000B50B84839583A683B7830DC0220F331F17
:10273000441F551F248335834683578382819381A9
:102740000197938382832481358146815781DA0101
:10275000C9010197A109B1098F5F9F4FAF4FBF43D7
:1027600028F30BC0918333822282EA0CFB1C0C1DE0
:102770001D1DE482F5820683178383E08083248114
:1027800035814681578157FF1AC0C901AA2797FD95
:10279000A095BA2F81709070A070B0705695479533
:1027A00037952795822B932BA42BB52B8483958368
:1027B000A683B78382819381019693838283DF010D
:1027C00001C0D201CD01CDB7DEB7E2E10C94B81F54
:1027D000A0E2B0E0EEEEF3E10C94A81F69837A83E7
:1027E0008B839C832D833E834F835887E9E0EE2EB5
:1027F000F12CEC0EFD1ECE010196B7010E942412B1
:102800008E010F5E1F4FCE010596B8010E94241263
:102810008A8991E089278A8BC701B801AE01475E9A
:102820005F4F0E949C120E944F11A096E6E00C940C
:10283000C41FA0E2B0E0EFE1F4E10C94A81F6983AB
:102840007A838B839C832D833E834F835887F9E063
:10285000EF2EF12CEC0EFD1ECE010196B7010E9469
:1028600024128E010F5E1F4FCE010596B8010E9403
:102870002412C701B801AE01475E5F4F0E949C124F
:102880000E944F11A096E6E00C94C41F1F93DC0138
:10289000FB019C91923008F447C08081823008F49B
:1028A00043C0943051F411961C91843099F5818184
:1028B000682F70E0611B71093FC0843021F09230B5
:1028C00031F48230B9F18181882389F12DC01196CC
:1028D0001C9111978230F1F081811817D9F412966A
:1028E0002D913C911397828193818217930794F0E5
:1028F00028173907BCF014968D919D910D90BC91CD
:10290000A02D2481358146815781281739074A0730
:102910005B0718F4112341F00AC082179307A4073C
:10292000B50740F4112319F061E070E005C06FEFC6
:102930007FEF02C060E070E0CB011F910895ACE032
:10294000B0E0E5EAF4E10C94AC1F69837A838B83F1
:102950009C83CE010196BE016B5F7F4F0E942412C3
:102960008D81823061F1823050F1843021F48E818A
:10297000882351F12EC02F81388537FD20C06E810C
:102980002F3131051CF06623F9F023C08EE190E071
:10299000821B930B29853A854B855C8504C056952F
:1029A0004795379527958A95D2F76623B1F05095CC
:1029B0004095309521953F4F4F4F5F4F0EC020E01F
:1029C00030E040E050E009C02FEF3FEF4FEF5FE70E
:1029D00004C020E030E040E050E8B901CA012C9684
:1029E000E2E00C94C81F813031F1813038F0823040
:1029F00009F43EC0833009F072C056C0442321F070
:102A0000413009F06CC00CC02AB381E090E002C0F4
:102A1000880F991F6A95E2F7809582238ABB0895F3
:102A20002AB381E090E002C0880F991F6A95E2F70F
:102A3000282B2ABB0895442321F0413009F04FC0D0
:102A40000CC027B381E090E002C0880F991F6A95FF
:102A5000E2F78095822387BB089527B381E090E059
:102A600002C0880F991F6A95E2F7282B27BB0895AB
:102A7000442319F0413099F50CC024B381E090E073
:102A800002C0880F991F6A95E2F78095822384BB64
:102A9000089524B381E090E002C0880F991F6A95E1
:102AA000E2F7282B24BB0895442319F04130B9F4F0
:102AB0000CC021B381E090E002C0880F991F6A9595
:102AC000E2F78095822381BB089521B381E090E0F5
:102AD00002C0880F991F6A95E2F7282B21BB089541
:102AE000813031F1813038F0823009F43EC08330DA
:102AF00009F072C056C0442321F0413009F06CC087
:102B00000CC02BB381E090E002C0880F991F6A953A
:102B1000E2F7809582238BBB08952BB381E090E090
:102B200002C0880F991F6A95E2F7282B2BBB0895E6
:102B3000442321F0413009F04FC00CC028B381E09C
:102B400090E002C0880F991F6A95E2F78095822372
:102B500088BB089528B381E090E002C0880F991FD8
:102B60006A95E2F7282B28BB0895442319F04130D9
:102B700099F50CC025B381E090E002C0880F991F41
:102B80006A95E2F78095822385BB089525B381E09D
:102B900090E002C0880F991F6A95E2F7282B25BBA9
:102BA0000895442319F04130B9F40CC022B381E0F8
:102BB00090E002C0880F991F6A95E2F78095822302
:102BC00082BB089522B381E090E002C0880F991F74
:102BD0006A95E2F7282B22BB0895813091F081306D
:102BE00028F08230C9F0833061F521C02BB381E039
:102BF00090E002C0880F991F6A95E2F728272BBB47
:102C0000089528B381E090E002C0880F991F6A956B
:102C1000E2F7282728BB089525B381E090E002C0A1
:102C2000880F991F6A95E2F7282725BB089522B3DC
:102C300081E090E002C0880F991F6A95E2F728278B
:102C400022BB0895813049F0813028F0823039F07C
:102C5000833041F406C06ABB089567BB089564BB26
:102C6000089561BB0895813049F0813028F08230A9
:102C700039F0833041F406C06BBB089568BB0895FA
:102C800065BB089562BB0895813059F0813028F00A
:102C9000823059F0833081F40CC08BB380958BBBAC
:102CA000089588B3809588BB089585B3809585BBCA
:102CB000089582B3809582BB0895813051F08130B0
:102CC00030F0823041F0833079F080E0089589B3AC
:102CD00003C086B301C083B390E002C09595879589
:102CE0006A95E2F78170089580B390E002C09595EF
:102CF00087956A95E2F781700895813051F08130AF
:102D000030F0823041F0833041F080E0089589B3A3
:102D1000089586B3089583B3089580B308958130EC
:102D200089F1813038F0823009F454C0833009F0E1
:102D3000A9C07AC0662321F0613009F0A3C011C098
:102D400080E060E040E00E94F31480E061E040E059
:102D50000E94F31480E062E040E00E94F31480E0FF
:102D600078C080E060E041E00E94F31480E061E020
:102D700041E00E94F31480E062E041E00E94F3141D
:102D800080E04FC0662321F0613009F07BC011C0A4
:102D900081E060E040E00E94F31481E061E040E007
:102DA0000E94F31481E062E040E00E94F31481E0AD
:102DB00050C081E060E041E00E94F31481E061E0F6
:102DC00041E00E94F31481E062E041E00E94F314CC
:102DD00081E027C0662321F0613009F053C011C0A3
:102DE00082E060E040E00E94F31482E061E040E0B5
:102DF0000E94F31482E062E040E00E94F31482E05B
:102E000028C082E060E041E00E94F31482E061E0CB
:102E100041E00E94F31482E062E041E00E94F3147A
:102E200082E063E041E017C0662319F0613051F59C
:102E300015C083E060E040E00E94F31483E061E0AD
:102E400040E00E94F31483E062E040E00E94F3144B
:102E500083E063E040E00E94F314089583E060E0C3
:102E600041E00E94F31483E061E041E00E94F3142A
:102E700083E062E041E00E94F31483E063E041E01C
:102E80000E94F3140895813089F1813038F0823046
:102E900009F454C0833009F0A9C07AC0662321F038
:102EA000613009F0A3C011C080E064E040E00E94FE
:102EB000F31480E065E040E00E94F31480E066E0F7
:102EC00040E00E94F31480E078C080E064E041E0DC
:102ED0000E94F31480E065E041E00E94F31480E07A
:102EE00066E041E00E94F31480E04FC0662321F0C9
:102EF000613009F07BC011C081E064E040E00E94D5
:102F0000F31481E065E040E00E94F31481E066E0A4
:102F100040E00E94F31481E050C081E064E041E0B1
:102F20000E94F31481E065E041E00E94F31481E027
:102F300066E041E00E94F31481E027C0662321F09F
:102F4000613009F053C011C082E064E040E00E94AB
:102F5000F31482E065E040E00E94F31482E066E052
:102F600040E00E94F31482E028C082E064E041E087
:102F70000E94F31482E065E041E00E94F31482E0D5
:102F800066E041E00E94F31482E067E041E017C090
:102F9000662319F0613051F515C083E064E040E02C
:102FA0000E94F31483E065E040E00E94F31483E0A4
:102FB00066E040E00E94F31483E067E040E00E9496
:102FC000F314089583E064E041E00E94F31483E089
:102FD00065E041E00E94F31483E066E041E00E9476
:102FE000F31483E067E041E00E94F31408956F70EA
:102FF000813071F0813028F0823089F08330E1F443
:1030000015C08BB3807F8BBB8BB3682B6BBB0895D4
:1030100088B3807F88BB88B3682B68BB089585B36D
:10302000807F85BB85B3682B65BB089582B3807FA5
:1030300082BB82B3682B62BB08956295607F81304A
:1030400071F0813028F0823089F08330E1F415C0CE
:103050008BB38F708BBB8BB3682B6BBB089588B31E
:103060008F7088BB88B3682B68BB089585B38F7059
:1030700085BB85B3682B65BB089582B38F7082BB17
:1030800082B3682B62BB08950F931F9381E062E0C7
:1030900041E00E9470150AEF10E0C8010197F1F7B6
:1030A00081E062E040E00E947015C8010197F1F7ED
:1030B0001F910F910895682F80E00E94331681E0E0
:1030C00060E041E00E94701581E061E040E00E9414
:1030D00070150E94441808952F923F924F925F926C
:1030E0006F927F928F929F92AF92BF92CF92DF9218
:1030F000EF92FF920F931F93DF93CF93CDB7DEB77D
:1031000029970FB6F894DEBF0FBECDBF2A833B834D
:103110004C835D836E837F8388879987822F832B7F
:10312000842B852B862B872B9885892BE9858E2BE5
:1031300021F480E30E945B1833C1222423943324BA
:103140004424552466247724882499249101A201DB
:10315000B301C40101E00E944900122FF32EE42EB6
:10316000D52EC62EB72EA82E892E02E00E94490029
:10317000922E910E21E0911608F020E03F0DE1E043
:103180003F1508F0E0E0722E730E21E0731608F090
:1031900020E0E22B4E0D31E04E1508F030E06E2EAF
:1031A000640E21E0641608F020E0322B5D0D41E052
:1031B0005D1508F040E0532E550E21E0551608F03D
:1031C00020E0422B6C0D31E06C1508F030E0442E0D
:1031D000460E21E0461608F020E0322B7B0D41E040
:1031E0007B1508F040E0332E370E21E0371608F04B
:1031F00020E0422B8A0D31E08A1508F030E0242EC1
:10320000280E21E0281608F020E0322B980DF32F2D
:10321000F90FF9832A813B814C815D816E817F8129
:1032200088859985AAE0AA2EBB24CC24DD24EE242F
:10323000FF2400E010E00E94E507122F190DF1E0D5
:10324000121708F0F0E0232F270DE1E0231708F014
:10325000E0E0BF2FB20F31E0B21708F030E0E32B0F
:10326000242F260DF1E0241708F0F0E0AE2FA20F76
:1032700031E0A21708F030E0F32B252F250D41E0B7
:10328000251708F040E00F2F020F31E0021708F079
:1032900030E0432B262F240D51E0261708F050E094
:1032A000642F620F31E0621708F030E0532B272FB4
:1032B000230D41E0271708F040E0520F31E052178C
:1032C00008F030E0432B282F220D31E0281708F0BA
:1032D00030E0420F81E0421708F080E0382B89810E
:1032E000890F212E3B2E4A2E502E662E752E842EAF
:1032F000982E930E2A813B814C815D816E817F8166
:1033000088859985FAE0AF2EBB24CC24DD24EE24F9
:10331000FF2400E010E00E9470012A833B834C836D
:103320005D836E837F8388879987822F832B842B8D
:10333000852B862B872B9885892BE9858E2B09F089
:1033400005CF1DC09101A201B301C401EAE0AE2E78
:10335000BB24CC24DD24EE24FF2400E010E00E94F6
:10336000E507822F805D0E945B189101A201B301E5
:10337000C4010E94700119012A013B014C01F1E0D6
:103380002F1601F73320F1F64420E1F65520D1F64F
:103390006620C1F67720B1F68820A1F6992091F633
:1033A00029960FB6F894DEBF0FBECDBFCF91DF9147
:1033B0001F910F91FF90EF90DF90CF90BF90AF9053
:1033C0009F908F907F906F905F904F903F902F9045
:1033D00008952F923F924F925F926F927F928F92B9
:1033E0009F92AF92BF92CF92DF92EF92FF920F9394
:1033F0001F937B018C010E94C8000E946C188EE212
:103400000E945B18C801B70120E034E244E759E4A8
:103410000E94550E0E94C800922E832E742E652E97
:10342000562E472E382E292E0AE0A02EBB24CC245F
:10343000DD24EE24FF2400E010E00E94E50799233C
:1034400079F4882369F4772359F4662349F45523E2
:1034500039F4442329F4332319F4253008F44CC0FB
:10346000292D382D472D562D652D742D832D922D08
:103470001AE0A12EBB24CC24DD24EE24FF2400E09E
:1034800010E00E947001E32FF42FA52FB62F172F05
:10349000082FE92EF22EF39431E0F21608F030E016
:1034A0003E0F41E03E1708F040E04F0F51E04F174C
:1034B00008F050E05A0F61E05A1708F060E06B0F17
:1034C00071E06B1708F070E0710F81E0711708F080
:1034D00080E0800F91E0801708F090E02F2D9E0D86
:1034E000B0EAAB2EA6E8BA2ECC24C394DD24EE2499
:1034F000FF2400E010E019C0292D382D472D562D4E
:10350000652D742D832D922DFAE0AF2EBB24CC2493
:10351000DD24EE24FF2400E010E00E947001E0EAC8
:10352000AE2EB6E8BB2ECC24C3940E94E5070E94C1
:103530006C181F910F91FF90EF90DF90CF90BF908C
:10354000AF909F908F907F906F905F904F903F9043
:103550002F9008951F93CF93DF93EC0110E003C0E9
:103560001F5F0E945B18FE01E10FF11D808188231F
:10357000B9F7DF91CF911F910895682F80E00E94E5
:10358000331681E060E040E00E94701581E061E068
:1035900040E00E9470150E944418089581E00E9446
:1035A000BD1A84EF91E00197F1F70895813029F475
:1035B000862F81580E94BD1A0895823021F4862FEB
:1035C00081540E94BD1A0895EF92FF920F931F93AA
:1035D000182F062F7A0180E40E94BD1AF70180811E
:1035E0000E945B18F70181810E945B18812F602F78
:1035F0000E94D61AF70180810E945B18F701818131
:103600000E945B181F910F91FF90EF9008950F9308
:103610001F9380E06FEF0E94221681E061E041E09D
:103620000E94F31481E062E041E00E94F31481E023
:1036300060E041E00E94F31484ED90E30197F1F71C
:103640008CE30E94BD1A0AEF10E0C8010197F1F760
:103650008FE00E94BD1AC8010197F1F781E00E9436
:10366000BD1A84EF91E00197F1F786E00E94BD1A40
:103670001F910F910895CF92DF92FF920F931F93A6
:10368000CF93DF93FF24C0E0D0E094EDC92E90E308
:10369000D92ECE018C5F082F83E0602F40E00E947E
:1036A000701583E060E00E945D16882311F410E03D
:1036B00017C083E061E00E945D16882311F411E0D9
:1036C0000FC083E062E00E945D16882311F412E0CF
:1036D00007C083E063E00E945D168823D9F413E0FD
:1036E000C6010197F1F783E0612F0E945D168823E0
:1036F00059F4E12FF0E0EE0FFF1FEE0FFF1FEC0F6C
:10370000FD1FE259FE4FF08083E0612F0E945D169D
:103710008823D1F383E0602F41E00E947015219649
:10372000C430D10509F0B5CF8F2DDF91CF911F9116
:103730000F91FF90DF90CF90089583E060E040E02C
:103740000E94F31483E061E040E00E94F31483E000
:1037500062E040E00E94F31483E063E040E00E94F6
:10376000F31483E060E041E00E94701583E061E0C3
:1037700041E00E94701583E062E041E00E94701514
:1037800083E063E041E00E94701583E064E041E083
:103790000E94F31483E065E041E00E94F31483E0AB
:1037A00066E041E00E94F31483E067E041E00E949C
:1037B000F31483E064E041E00E94701583E065E06B
:1037C00041E00E94701583E066E041E00E947015C0
:1037D00083E067E041E00E9470150895FC0180E0FD
:1037E0000AC0442311F4108204C0413011F4118244
:1037F00010828F5F31968617A0F30895CF93DF93E1
:10380000EC01A0E050E02FC04A32A8F04C3220F08A
:103810004D3211F04F3279F4252F2F5FE22FF0E077
:10382000EE0FFF1FE60FF71F842F90E09068918343
:1038300080835E5F17C0E52FF0E0EE0FFF1FE60FFD
:10384000F71F4053808191819C01B3E0220F331F09
:10385000BA95E1F7880F991F280F391F240F311DE2
:1038600031832083AF5FFE01EA0FF11D40814423C5
:1038700059F6852FDF91CF910895FC01009711F43F
:103880002FEF05C020E080818F3F09F421E0822FD7
:103890000895FC01009729F424E230E040E050E074
:1038A00011C08081992787FD9095880F991F880FF7
:1038B000991F0280F381E02DE80FF91F20813181EB
:1038C00042815381B901CA010895DC010097C1F01A
:1038D0006C916F3FA9F0862F992787FD9095880FEF
:1038E000991F880F991F1296ED91FC911397E80F7D
:1038F000F91F208131814281538161506C9304C052
:1039000024E230E040E050E0B901CA010895DC0152
:103910000097A1F01296ED91FC9113978C918F5F17
:103920008C93992787FD9095880F991F880F991F71
:10393000E80FF91F40835183628373830895892FB1
:103940008095881F8827881F08958D3271F08E32E8
:1039500028F48A3241F08B3261F407C08F3219F0BB
:103960008E3539F404C082E0089581E0089583E043
:1039700008958FEF08951F93CF93DF93182F84E05E
:1039800090E00E94D31FEC01009769F48FEF8883C9
:103990001983812F90E0880F991F880F991F0E942B
:1039A000D31F8A839B8380E090E0DF91CF911F91AA
:1039B00008956F927F928F929F92AF92BF92CF9213
:1039C000DF92EF92FF920F931F93CF93DF933C010F
:1039D000862E862F0E94BB1C7C01009729F42FEFB6
:1039E0003FEF4FEF5FEFADC09924C92DD0E0CC0F72
:1039F000DD1FC60DD71D2881398137FD19C0D701BC
:103A00001296ED91FC9113978C918F5F8C9399276F
:103A100087FD9095880F991F880F991FE80FF91F50
:103A2000C901A0E0B0E080839183A283B38380C00A
:103A3000C7010E94651C5B016C01C7010E94651CE7
:103A40009B01AC0188818B3261F08C3220F48A3288
:103A500009F06EC036C08D32D1F08F3209F068C0E7
:103A60004CC0D7011296ED91FC9113978C918F5F0A
:103A70008C93992787FD9095880F991F880F991F20
:103A8000E80FF91F2A0D3B1D4C1D5D1D15C0D70108
:103A90001296ED91FC9113978C918F5F8C939927DF
:103AA00087FD9095880F991F880F991FE80FF91FC0
:103AB0002A193B094C095D092083318342835383D2
:103AC00037C0F7010281138180818F5F808399273E
:103AD00087FD9095880F991F880F991F080F191F50
:103AE000CA01B901A60195010E94401FD8016D933A
:103AF0007D938D939C9313971BC0F70102811381D3
:103B000080818F5F8083992787FD9095880F991F0B
:103B1000880F991F080F191FCA01B901A601950145
:103B20000E945F1FD8012D933D934D935C93139793
:103B30009394891408F059CFC7010E94651C9B011A
:103B4000AC01B901CA01DF91CF911F910F91FF9094
:103B5000EF90DF90CF90BF90AF909F908F907F902D
:103B60006F9008954F925F927F928F929F92AF9243
:103B7000BF92CF92DF92EF92FF920F931F93CF935A
:103B8000DF934C01162F862F0E94BB1C7C010097EF
:103B900009F47FC064010FEFAA24BB24412E5524F1
:103BA00045C0D6018D919C91202F2F5F97FF09C0B2
:103BB000C22FDD27C7FDD095CC0FDD1FC80DD91D45
:103BC00012C0022FE22FFF27E7FDF095EE0FFF1F37
:103BD000E80DF91D9183808322C00F5FC7010E9409
:103BE000651C69937993F70110811F3F89F5D60110
:103BF0008D919C91A0E0B0E0E701EA81FB81212F4B
:103C00002F5F2883332727FD3095220F331F220F84
:103C1000331FE20FF31F80839183A283B383089441
:103C2000A11CB11CE2E0F0E0CE0EDF1E4A145B04E2
:103C30000CF0B7CF0F5FC02FDD27C7FDD095CC0F9D
:103C4000DD1FC80DD91DD7018C918F3FE1F421C034
:103C5000F60180810E94A51C782E812F992787FD6F
:103C60009095880F991F880F991FD7011296ED9193
:103C7000FC911397E80FF91F80810E94A51C8715FE
:103C80000CF0ABCFB4CFC7010E94651C6993799348
:103C9000DACF8FEFDF91CF911F910F91FF90EF90CF
:103CA000DF90CF90BF90AF909F908F907F905F906C
:103CB0004F900895FF920F931F938C01F62E0E9450
:103CC000B21DC8016F2D0E94D91C1F910F91FF904A
:103CD00008954F925F926F927F928F929F92AF92D0
:103CE000BF92CF92DF92EF92FF920F931F93DF93D9
:103CF000CF93CDB7DEB7CD58D0400FB6F894DEBF26
:103D00000FBECDBF39E2E32EF12CEC0EFD1E84E692
:103D1000F70111928A95E9F78E010F5F1F4F88E234
:103D2000F80111928A95E9F70E94071B0E949D1BDA
:103D30000E94CE1A882483949924C357DF4F188297
:103D4000CD58D04037012801FFE0F81520F487E076
:103D50000E94BD1A04C081E0682D0E94D61A0E94FC
:103D60003B1B082F8823D9F38D3389F58DE30E94FF
:103D70005B18C301B2010E94FE1B682FC2010E94A2
:103D80005A1E5B016C0197FF13C08DE20E945B1805
:103D900088279927DC018A199B09AC09BD097C0198
:103DA0008D01110FEE08FE2C87019C01AD0108C0AA
:103DB0007B018C01110FEE08FE2C87019501A601F5
:103DC0006E2D7E2D8E2D9E2D0E946C18BDCF8334BE
:103DD000E1F40E94CE1A81E061E00E94D61AC3018C
:103DE00064E640E00E94EE1BC20164E141E00E94F3
:103DF000EE1B86E00E94BD1A882483949924C35741
:103E0000DF4F1882CD58D040A6CF8B3231F08D32A3
:103E100021F08A3211F08F3229F5C357DF4F8881A4
:103E2000CD58D040813071F49A94F301E90DF11D21
:103E300093940083682D61500E94D61A802F0E94AF
:103E40005B1882CF802F0E945B18F301E90DF11DF2
:103E5000008383949394E1E0C357DF4FE883CD5808
:103E6000D04072CF0E945B18F301E90DF11D008371
:103E700083949394C357DF4F1882CD58D04064CFBA
:103E8000629FD001739FF001829FE00DF11D649F3E
:103E9000E00DF11D929FF00D839FF00D749FF00DCA
:103EA000659FF00D9927729FB00DE11DF91F639F6B
:103EB000B00DE11DF91FBD01CF011124089597FB3D
:103EC000092E05260ED057FD04D014D00AD0001CB0
:103ED00038F450954095309521953F4F4F4F5F4FA7
:103EE0000895F6F790958095709561957F4F8F4F67
:103EF0009F4F0895A1E21A2EAA1BBB1BFD010DC006
:103F0000AA1FBB1FEE1FFF1FA217B307E407F50789
:103F100020F0A21BB30BE40BF50B661F771F881F65
:103F2000991F1A9469F760957095809590959B01FB
:103F3000AC01BD01CF0108952F923F924F925F9245
:103F40006F927F928F929F92AF92BF92CF92DF92A9
:103F5000EF92FF920F931F93CF93DF93CDB7DEB70E
:103F6000CA1BDB0B0FB6F894DEBF0FBECDBF0994A2
:103F70002A88398848885F846E847D848C849B84F9
:103F8000AA84B984C884DF80EE80FD800C811B8107
:103F9000AA81B981CE0FD11D0FB6F894DEBF0FBE36
:103FA000CDBFED010895CF93DF93BC018230910521
:103FB00010F462E070E0A0918001B0918101ED0108
:103FC000E0E0F0E040E050E021C088819981861770
:103FD000970769F48A819B81309719F093838283D4
:103FE00004C09093810180938001FE0134C0681762
:103FF000790738F44115510519F08417950708F42D
:10400000AC01FE018A819B819C01E9012097E9F6C0
:1040100041155105A9F1CA01861B970B049708F4B5
:10402000BA01E0E0F0E02AC08D919C9111978417CD
:104030009507F9F46417750781F412968D919C9198
:104040001397309719F09383828304C09093810172
:1040500080938001FD0132964FC0CA01861B970BE9
:10406000FD01E80FF91F6193719302978D939C9363
:1040700043C0FD01828193819C01D9011097A1F673
:1040800080917E0190917F01892B41F480916A019A
:1040900090916B0190937F0180937E0140916C0120
:1040A00050916D014115510541F44DB75EB78091B6
:1040B000680190916901481B590B20917E01309154
:1040C0007F0124173507B0F4CA01821B930B8617B2
:1040D000970780F0AB014E5F5F4F8417950750F054
:1040E000420F531F50937F0140937E01F90161936A
:1040F000719302C0E0E0F0E0CF01DF91CF9108952D
:10410000CF93DF93009709F450C0EC0122971B82F4
:104110001A82A0918001B0918101109709F140E0CD
:1041200050E0AC17BD0708F1BB83AA83FE012191C3
:104130003191E20FF31FAE17BF0779F48D919C9177
:104140001197280F391F2E5F3F4F3983288312960E
:104150008D919C9113979B838A834115510571F42E
:10416000D0938101C093800120C012968D919C91C3
:104170001397AD01009711F0DC01D3CFFA01D3837F
:10418000C28321913191E20FF31FCE17DF0769F44B
:1041900088819981280F391F2E5F3F4FFA013183A3
:1041A00020838A819B8193838283DF91CF910895BD
:0441B000F894FFCFB1
:1041B40000000000000000000001020203030303EA
:1041C40004040404040404040505050505050505A3
:1041D4000505050505050505060606060606060683
:1041E400060606060606060606060606060606066B
:1041F4000606060606060606070707070707070753
:10420400070707070707070707070707070707073A
:10421400070707070707070707070707070707072A
:10422400070707070707070707070707070707071A
:104234000707070707070707080808080808080802
:1042440008080808080808080808080808080808EA
:1042540008080808080808080808080808080808DA
:1042640008080808080808080808080808080808CA
:1042740008080808080808080808080808080808BA
:1042840008080808080808080808080808080808AA
:10429400080808080808080808080808080808089A
:1042A400080808080808080808080808080808088A
:1042B40008080808080808082000820100003738A8
:0E42C400392F3435362A3132332D43303D2B1D
:00000001FF
